:020000040808EA
:1000000000000808340C0808000003000A0005017D
:0800100004020B0000000000D7
:10001800E00A080809480A4908B5884205D0094A8B
:10002800824202D0121A00F03BFD0748074A00211D
:10003800121A00F040FD064808BD00BF0004002069
:10004800040C080808040020080400209C0500206F
:100058009C05002070B500F07DFB074B074C1E4641
:10006800E41AA4080025A54204D056F8253098477C
:100078000135F8E770BD00BFE00B0808000C080860
:1000880000F012B808B500F01FF8BDE8084000F00D
:1000980023BB00F021B90078B0FA80F0400970471E
:1000A800012303707047000008B5064B002118882B
:1000B80000F090FB00F0F2FABDE808404FF416514A
:1000C80000F0E8BA0004002010B500F0E7FA094B88
:1000D8000446188800F08FFB042190FBF1F10A22F6
:1000E800204600F00DFABDE810404FF47A7000F099
:1000F800FBB800BF0004002008B500F00DF8014B64
:10010800186008BD0C04002008B5024B1B685B682A
:10011800019308BD9C01040808B5024B1B681B68C5
:10012800019308BDB001040808B5024B1B685B6861
:10013800019308BDB001040808B5024B1B689B6811
:10014800019308BDB001040808B5024B1B681B6B7E
:10015800019308BDB001040808B5024B1B681B6A6F
:10016800019308BDAC01040808B5024B1B685B6A23
:10017800019308BDAC01040808B5024B1B689B6AD3
:10018800019308BDAC01040808B5024B1B68DB6A83
:10019800019308BDAC01040808B5024B1B681B6B32
:1001A800019308BDAC01040808B5024B1B685B6BE2
:1001B800019308BDAC01040808B5024B1B681B6C11
:1001C800019308BDAC01040808B5024B1B68DB6944
:1001D800019308BDB401040808B5024B1B681B6AEB
:1001E800019308BDB401040808B5024B1B681B68DD
:1001F800019308BDC401040808B5024B1B685B687D
:10020800019308BDC401040808B5024B1B689B682C
:10021800019308BDC401040808B5024B1B68DB68DC
:10022800019308BDC401040808B5024B1B689B690B
:10023800019308BDC401040808B5024B1B685B6A3A
:10024800019308BDC401040808B5024B1B689B6AEA
:10025800019308BDC401040808B5024B1B68DB6A9A
:10026800019308BDC401040808B5024B1B681B6B49
:10027800019308BDC401040808B5024B1B685B6BF9
:10028800019308BDC401040808B5024B1B689B6BA9
:10029800019308BDC401040808B5024B1B681B6C18
:1002A800019308BDC401040808B5024B1B685B68CC
:1002B800019308BDA401040808B5024B1B685B69DB
:1002C800019308BDA401040808B5024B1B681B690B
:1002D800019308BDC801040808B5024B1B685B6898
:1002E800019308BDA00104080021FFF7E5BF002025
:1002F80001460246FFF7E8BF38B5064C064B2046D4
:10030800282540F8043B00212A4600F0D4FBA580AC
:1003180038BD00BF10040020000B08087047F8B56E
:10032800064615460C468F18BC4206D03368304640
:100338009B6814F8011B9847F6E72846F8BD007C2F
:100348000022FFF709BF007C0021FFF70DBF007CEA
:100358000021FFF711BF007C0021FFF715BF007CCB
:100368000021FFF719BF10B50446FFF792FE20469B
:1003780010BD000010B504464FF47A728260054A39
:10038800002343600260017408461946FFF714FF12
:10039800204610BD100B0808007C0021FFF704BFA1
:1003A800704710B50446FFF774FE204610BDF8B537
:1003B8000F4600F10806051D002416F8011D3846F1
:1003C8000A2200F0B4F8AE42044407D0002CF4D05E
:1003D80038462E2100F044F80444EEE72046F8BDE4
:1003E80010B59DF8084044EA032343EA024242EA72
:1003F8000161416010BD000037B50446044D056039
:100408009DF818500095FFF7EBFF204603B030BD6C
:10041800380B0808F8B506460D468F180024BD426B
:100428000CD0336830469B6815F8011B98470028A4
:1004380001DB0444F3E7002C08BF04462046F8BD5E
:1004480070B505460C46084649B100F03CFB2B68E0
:10045800024621462846BDE87040DB68184770BD53
:1004680003689B68184738B50D210546FFF7F8FF64
:100478000A2104462846FFF7F3FF204438BD012A25
:1004880098BF0A2230B50B468BB000218DF8241096
:100498000DF12304B3FBF2F505FB1233DBB2092B94
:1004A80094BF30333733DBB2214604F801392B4689
:1004B800002DEFD1FFF7C4FF0BB030BD2DE9F0419F
:1004C80007460E4615462AB9BDE8F0410368C9B289
:1004D8009B6818470A2A02D1002901DA04E0D2B23F
:1004E800BDE8F041FFF7CBBF2D21FFF7B9FF7142FF
:1004F80004462A463846FFF7C2FF2044BDE8F0818B
:1005080038B50546FFF7DAFF04462846FFF7ABFF84
:10051800204438BD10B52AB9BDE810400368C9B2F7
:100528009B681847D2B2BDE81040FFF7A8BFFFF795
:10053800F1BF704710B50446FFF7ABFD204610BD6C
:1005480010B50446044B017103600846FFF73CFEF2
:100558000023A360204610BD500B08080079FFF760
:100568003BBE0020FFF7A0BE024B1A68024B1A6080
:10057800704700BF040400203C0400207047417409
:100588007047007CFFF760BE007CFFF75DBE007C13
:10059800FFF76ABE007CFFF75FBE007CFFF76CBE0A
:1005A80010B50446FFF775FD204610BD70B5457CB3
:1005B80004460E4625B9007CFFF76EFE002805DDCF
:1005C800207C3146BDE87040FFF736BE284670BD36
:1005D80010B50446002060604FF47A70A0600648A9
:1005E8002174206001206074084611461A46FFF7FE
:1005F8001BFE204610BD00BF900B0808007CFFF7CB
:1006080043BE000038B50C4D296811F0010411D122
:100618002846FFF740FD68B12146084A084B0948BB
:10062800FFF7D6FF2846FFF73BFD06480649074A6D
:1006380000F05EF9034838BD980400209C040020AF
:100648005404002040040020850508080804002000
:10065800704770470020FFF7D7BD0120FFF7D4BDD2
:1006680008B5FFF7C9FD08BD08B50846FFF7D4FD72
:10067800012008BD10B50446FFF70BFD204610BD4C
:10068800002242604FF47A728260014A0260704729
:10069800C00B08080846FFF7A7BD000010B50A4CB4
:1006A8002368DB070ED42046FFF7F5FC50B1074856
:1006B800FFF7E6FF2046FFF7F3FC04480449054A24
:1006C80000F016F9014810BDF0040020E0040020F5
:1006D8005B0608080804002008B5134B33B1FFF780
:1006E800DDFF03681B699847002815DC0F4B33B101
:1006F800FFF788FF03681B69984700280FDC0C4B3D
:100708000BB1AFF300800B4B0BB1AFF300800A4B7A
:1007180043B1AFF3008008BDAFF30080E6E7AFF365
:100728000080ECE708BD00BF0000000000000000EA
:100738000000000000000000000000000248034A1A
:100748000349121A00F0ACB90040024004400240CC
:10075800000C080838B5094C094D23685A1B534248
:100768005341084A137013B9FFF7E8FF2560064B99
:100778001BB1FFF7C9FCAFF3008038BD0040024051
:100788001E1C279AF40400200000000010B504463F
:100798000F48FFF7E3FE28B1A4F10D03022B01D89F
:1007A800002010BD00F03EF8FFF7F6FD08B1012C5F
:1007B800F6D9FFF727FFFFF721FF18B1A4F11203BD
:1007C800012BEDD92E2C8CBF0020012010BD00BFBD
:1007D800180500202E2838B505460C460AD8FF29EA
:1007E80008D0FFF7D3FF28B128462146BDE8384096
:1007F800FFF7A2BC38BD10B5044609289CBF0A34CF
:10080800A4B22046FFF7C2FF50B120460321FFF7EC
:100818008BFC032804D12046BDE81040FFF794BCA8
:10082800002010BD38B50B4D296811F001040FD117
:100838002846FFF730FC58B121460748FFF79AFDD4
:100848002846FFF72DFC04480449054A00F050F8F3
:10085800014838BDF8040020FC04002025030808DE
:100868000804002013B5084C002100910A460B46E5
:100878002046FFF7C1FD20460449054A02B0BDE8FD
:10088800104000F035B800BF10050020A903080883
:100898000804002070B5114E114D124C304600214D
:1008A800FFF74EFE3046104E2246294600F020F84B
:1008B80030460121FFF744FE30460C4E22462946B9
:1008C80000F016F830460221FFF73AFE3046294676
:1008D8002246BDE8704000F00BB800BF18050020A4
:1008E8003B050808080400202405002030050020E6
:1008F80003460846194600F0C5B80000244B1A689C
:10090800D0075CBF01221A60224B1A68D1075CBF6E
:1009180001221A60204B1A68D2075CBF01221A60B4
:100928001E4B1A68D0075CBF01221A601C4B1A685C
:10093800D1075CBF01221A601A4B1A68D2075CBF44
:1009480001221A60184B1A68D0075CBF01221A608E
:10095800164B1A68D1075CBF01221A60144B1A683B
:10096800D2075CBF01221A60124B1A68D0075CBF1D
:1009780001221A60104B1A68D1075CBF01221A6065
:100988000E4B1A68D2075CBF01221A60704700BF7D
:100998006805002064050020600500205C05002033
:1009A8005805002054050020500500204C05002063
:1009B8004805002044050020400500203C05002093
:1009C800244B1A68D0075CBF01221A60224B1A68B0
:1009D800D1075CBF01221A60204B1A68D2075CBF9E
:1009E80001221A601E4B1A68D0075CBF01221A60E8
:1009F8001C4B1A68D1075CBF01221A601A4B1A688F
:100A0800D2075CBF01221A60184B1A68D0075CBF76
:100A180001221A60164B1A68D1075CBF01221A60BE
:100A2800144B1A68D2075CBF01221A60124B1A686D
:100A3800D0075CBF01221A60104B1A68D1075CBF4F
:100A480001221A600E4B1A68D2075CBF01221A6095
:100A5800704700BF980500209405002090050020ED
:100A68008C050020880500208405002080050020D2
:100A78007C05002078050020740500207005002002
:100A88006C05002038B5054604480C46134620B1CD
:100A9800022029462246AFF3008038BD000000003E
:100AA80010B5431E0A44914204D011F8014B03F8D3
:100AB800014FF8E710BD03460244934202D003F801
:100AC800011BFAE77047034613F8012B002AFBD1F4
:100AD800181A0138704700001D0008085D00080852
:100AE800890008088D0008080000000000000000C8
:100AF8000000000000000000F702080800000000E5
:100B08000000000000000000250308086F03080823
:100B180047030808270308084F030808570308086D
:100B28005F030808670308080000000000000000D1
:100B3800B7030808A9030808AB0308080000000069
:100B480000000000000000003B0508083D050808FB
:100B58005A00252B3033643A253032750025592D3B
:100B6800256D2D25645425483A254D3A2553257A77
:100B78000061736374696D65000000000000000087
:100B8800000000000000000085050808A905080805
:100B9800B50508081D040808910508089D050808FA
:100BA80097050808A3050808870508088B0508089D
:100BB80000000000000000005B0608087D06080829
:100BC800710608081D040808690608085D06080873
:100BD80063060808590608080101080801030808FF
:100BE8006B050808710508086D0808089D080808BD
:080BF80005090808C9090808F5
:040C000000000000F0
:080C04000A000000790B08084A
:100C0C00FFFFFFFF00000102030405060708090AA5
:100C1C000B0C0D0E0F101112131415161718191AA0
:080C2C001B1C1D1E1F202800E7
:040C340078563412A8
:0400000508080018CF
:00000001FF
